{"contracts/Raffle.sol":{"Raffle":{"abi":[{"inputs":[{"internalType":"address","name":"vrfCoordinatorV2","type":"address"},{"internalType":"uint64","name":"subscriptionId","type":"uint64"},{"internalType":"bytes32","name":"gasLane","type":"bytes32"},{"internalType":"uint256","name":"interval","type":"uint256"},{"internalType":"uint256","name":"entranceFee","type":"uint256"},{"internalType":"uint32","name":"callbackGasLimit","type":"uint32"}],"stateMutability":"nonpayable","type":"constructor"},{"inputs":[{"internalType":"address","name":"have","type":"address"},{"internalType":"address","name":"want","type":"address"}],"name":"OnlyCoordinatorCanFulfill","type":"error"},{"inputs":[],"name":"Raffle__RaffleNotOpen","type":"error"},{"inputs":[],"name":"Raffle__SendMoreToEnterRaffle","type":"error"},{"inputs":[],"name":"Raffle__TransferFailed","type":"error"},{"inputs":[{"internalType":"uint256","name":"currentBalance","type":"uint256"},{"internalType":"uint256","name":"numPlayers","type":"uint256"},{"internalType":"uint256","name":"raffleState","type":"uint256"}],"name":"Raffle__UpkeepNotNeeded","type":"error"},{"anonymous":false,"inputs":[{"indexed":true,"internalType":"address","name":"player","type":"address"}],"name":"RaffleEnter","type":"event"},{"anonymous":false,"inputs":[{"indexed":true,"internalType":"uint256","name":"requestId","type":"uint256"}],"name":"RequestRaffleWinner","type":"event"},{"anonymous":false,"inputs":[{"indexed":true,"internalType":"address","name":"player","type":"address"}],"name":"WinnerPicked","type":"event"},{"inputs":[{"internalType":"bytes","name":"","type":"bytes"}],"name":"checkUpkeep","outputs":[{"internalType":"bool","name":"upkeepNeeded","type":"bool"},{"internalType":"bytes","name":"","type":"bytes"}],"stateMutability":"view","type":"function"},{"inputs":[],"name":"enterRaffle","outputs":[],"stateMutability":"payable","type":"function"},{"inputs":[],"name":"getNumWords","outputs":[{"internalType":"uint256","name":"","type":"uint256"}],"stateMutability":"pure","type":"function"},{"inputs":[{"internalType":"uint256","name":"index","type":"uint256"}],"name":"getPlayer","outputs":[{"internalType":"address","name":"","type":"address"}],"stateMutability":"view","type":"function"},{"inputs":[],"name":"getRecentWinner","outputs":[{"internalType":"address","name":"","type":"address"}],"stateMutability":"view","type":"function"},{"inputs":[],"name":"getRequestConfirmations","outputs":[{"internalType":"uint256","name":"","type":"uint256"}],"stateMutability":"pure","type":"function"},{"inputs":[{"internalType":"bytes","name":"","type":"bytes"}],"name":"performUpkeep","outputs":[],"stateMutability":"nonpayable","type":"function"},{"inputs":[{"internalType":"uint256","name":"requestId","type":"uint256"},{"internalType":"uint256[]","name":"randomWords","type":"uint256[]"}],"name":"rawFulfillRandomWords","outputs":[],"stateMutability":"nonpayable","type":"function"}],"devdoc":{"kind":"dev","methods":{"checkUpkeep(bytes)":{"details":"The function that Chainlink Keeper nodes call they look for `upkeepNeeded` returning False the following should be true if it is to return true: 1. Enough time has passed between raffle runs 2. The lottery is open. 3. The contract has enough ETH 4. Your subscription is funded with LINK"},"performUpkeep(bytes)":{"details":"Once `checkUpkeep` returns `true`, this function is triggered and it kicks off a Chainlink VRF call to select a random winner."}},"version":1},"evm":{"bytecode":{"linkReferences":{},"object":"6101606040523480156200001257600080fd5b506040516200152c3803806200152c8339818101604052810190620000389190620001a6565b858073ffffffffffffffffffffffffffffffffffffffff1660808173ffffffffffffffffffffffffffffffffffffffff1660601b81525050508573ffffffffffffffffffffffffffffffffffffffff1660a08173ffffffffffffffffffffffffffffffffffffffff1660601b815250508360e081815250508261012081815250508467ffffffffffffffff1660c08167ffffffffffffffff1660c01b815250508161014081815250506000600360006101000a81548160ff021916908360018111156200010a5762000109620002ae565b5b02179055508063ffffffff166101008163ffffffff1660e01b8152505050505050505062000364565b6000815190506200014481620002e2565b92915050565b6000815190506200015b81620002fc565b92915050565b600081519050620001728162000316565b92915050565b600081519050620001898162000330565b92915050565b600081519050620001a0816200034a565b92915050565b60008060008060008060c08789031215620001c657620001c5620002dd565b5b6000620001d689828a0162000133565b9650506020620001e989828a016200018f565b9550506040620001fc89828a016200014a565b94505060606200020f89828a0162000161565b93505060806200022289828a0162000161565b92505060a06200023589828a0162000178565b9150509295509295509295565b60006200024f8262000260565b9050919050565b6000819050919050565b600073ffffffffffffffffffffffffffffffffffffffff82169050919050565b6000819050919050565b600063ffffffff82169050919050565b600067ffffffffffffffff82169050919050565b7f4e487b7100000000000000000000000000000000000000000000000000000000600052602160045260246000fd5b600080fd5b620002ed8162000242565b8114620002f957600080fd5b50565b620003078162000256565b81146200031357600080fd5b50565b620003218162000280565b81146200032d57600080fd5b50565b6200033b816200028a565b81146200034757600080fd5b50565b62000355816200029a565b81146200036157600080fd5b50565b60805160601c60a05160601c60c05160c01c60e0516101005160e01c610120516101405161115a620003d2600039600061029a015260006106900152600061053f015260006104fb0152600061051c015260006104bf0152600081816101da015261022e015261115a6000f3fe60806040526004361061007b5760003560e01c806353a2c19a1161004e57806353a2c19a146101075780635f1b0fd8146101325780636e04ff0d1461015d578063e55ae4e81461019b5761007b565b80631fe543e3146100805780632cfcc539146100a95780634585e33b146100b3578063473f1ddc146100dc575b600080fd5b34801561008c57600080fd5b506100a760048036038101906100a29190610b9c565b6101d8565b005b6100b1610298565b005b3480156100bf57600080fd5b506100da60048036038101906100d59190610aac565b610407565b005b3480156100e857600080fd5b506100f1610607565b6040516100fe9190610cd2565b60405180910390f35b34801561011357600080fd5b5061011c610631565b6040516101299190610d99565b60405180910390f35b34801561013e57600080fd5b50610147610640565b6040516101549190610d99565b60405180910390f35b34801561016957600080fd5b50610184600480360381019061017f9190610af9565b61064d565b604051610192929190610d16565b60405180910390f35b3480156101a757600080fd5b506101c260048036038101906101bd9190610b42565b610735565b6040516101cf9190610cd2565b60405180910390f35b7f000000000000000000000000000000000000000000000000000000000000000073ffffffffffffffffffffffffffffffffffffffff163373ffffffffffffffffffffffffffffffffffffffff161461028a57337f00000000000000000000000000000000000000000000000000000000000000006040517f1cf993f4000000000000000000000000000000000000000000000000000000008152600401610281929190610ced565b60405180910390fd5b610294828261077d565b5050565b7f00000000000000000000000000000000000000000000000000000000000000003410156102f2576040517f3038c00a00000000000000000000000000000000000000000000000000000000815260040160405180910390fd5b600060018111156103065761030561104e565b5b600360009054906101000a900460ff1660018111156103285761032761104e565b5b1461035f576040517fd24a271400000000000000000000000000000000000000000000000000000000815260040160405180910390fd5b6002339080600181540180825580915050600190039060005260206000200160009091909190916101000a81548173ffffffffffffffffffffffffffffffffffffffff021916908373ffffffffffffffffffffffffffffffffffffffff1602179055503373ffffffffffffffffffffffffffffffffffffffff167f0805e1d667bddb8a95f0f09880cf94f403fb596ce79928d9f29b74203ba284d460405160405180910390a2565b60006104216040518060200160405280600081525061064d565b509050806104905747600280549050600360009054906101000a900460ff1660018111156104525761045161104e565b5b6040517f584327aa00000000000000000000000000000000000000000000000000000000815260040161048793929190610db4565b60405180910390fd5b6001600360006101000a81548160ff021916908360018111156104b6576104b561104e565b5b021790555060007f000000000000000000000000000000000000000000000000000000000000000073ffffffffffffffffffffffffffffffffffffffff16635d3b1d307f00000000000000000000000000000000000000000000000000000000000000007f000000000000000000000000000000000000000000000000000000000000000060037f000000000000000000000000000000000000000000000000000000000000000060016040518663ffffffff1660e01b8152600401610580959493929190610d46565b602060405180830381600087803b15801561059a57600080fd5b505af11580156105ae573d6000803e3d6000fd5b505050506040513d601f19601f820116820180604052508101906105d29190610b6f565b9050807fde6349b018d6c03d837b67d9a198a6ba4842546f2295fe963fae141e5dbaef8160405160405180910390a250505050565b6000600160009054906101000a900473ffffffffffffffffffffffffffffffffffffffff16905090565b6000600163ffffffff16905090565b6000600361ffff16905090565b600060606000600360009054906101000a900460ff1660018111156106755761067461104e565b5b600060018111156106895761068861104e565b5b14905060007f0000000000000000000000000000000000000000000000000000000000000000600054426106bd9190610e94565b119050600080600280549050119050600080471190508280156106dd5750835b80156106e65750805b80156106ef5750815b9550856040518060400160405280600381526020017f30783000000000000000000000000000000000000000000000000000000000008152509550955050505050915091565b60006002828154811061074b5761074a61107d565b5b9060005260206000200160009054906101000a900473ffffffffffffffffffffffffffffffffffffffff169050919050565b6000600280549050826000815181106107995761079861107d565b5b60200260200101516107ab9190610fbf565b90506000600282815481106107c3576107c261107d565b5b9060005260206000200160009054906101000a900473ffffffffffffffffffffffffffffffffffffffff16905080600160006101000a81548173ffffffffffffffffffffffffffffffffffffffff021916908373ffffffffffffffffffffffffffffffffffffffff16021790555060008173ffffffffffffffffffffffffffffffffffffffff164760405161085790610cbd565b60006040518083038185875af1925050503d8060008114610894576040519150601f19603f3d011682016040523d82523d6000602084013e610899565b606091505b50509050806108d4576040517fa1d04b3900000000000000000000000000000000000000000000000000000000815260040160405180910390fd5b8173ffffffffffffffffffffffffffffffffffffffff167f5b690ec4a06fe979403046eaeea5b3ce38524683c3001f662c8b5a829632f7df60405160405180910390a25050505050565b600061093161092c84610e10565b610deb565b90508083825260208201905082856020860282011115610954576109536110e5565b5b60005b85811015610984578161096a8882610a82565b845260208401935060208301925050600181019050610957565b5050509392505050565b60006109a161099c84610e3c565b610deb565b9050828152602081018484840111156109bd576109bc6110ea565b5b6109c8848285610f4c565b509392505050565b600082601f8301126109e5576109e46110e0565b5b81356109f584826020860161091e565b91505092915050565b60008083601f840112610a1457610a136110e0565b5b8235905067ffffffffffffffff811115610a3157610a306110db565b5b602083019150836001820283011115610a4d57610a4c6110e5565b5b9250929050565b600082601f830112610a6957610a686110e0565b5b8135610a7984826020860161098e565b91505092915050565b600081359050610a918161110d565b92915050565b600081519050610aa68161110d565b92915050565b60008060208385031215610ac357610ac26110f4565b5b600083013567ffffffffffffffff811115610ae157610ae06110ef565b5b610aed858286016109fe565b92509250509250929050565b600060208284031215610b0f57610b0e6110f4565b5b600082013567ffffffffffffffff811115610b2d57610b2c6110ef565b5b610b3984828501610a54565b91505092915050565b600060208284031215610b5857610b576110f4565b5b6000610b6684828501610a82565b91505092915050565b600060208284031215610b8557610b846110f4565b5b6000610b9384828501610a97565b91505092915050565b60008060408385031215610bb357610bb26110f4565b5b6000610bc185828601610a82565b925050602083013567ffffffffffffffff811115610be257610be16110ef565b5b610bee858286016109d0565b9150509250929050565b610c0181610ec8565b82525050565b610c1081610eda565b82525050565b610c1f81610ee6565b82525050565b6000610c3082610e6d565b610c3a8185610e78565b9350610c4a818560208601610f5b565b610c53816110f9565b840191505092915050565b6000610c6b600083610e89565b9150610c768261110a565b600082019050919050565b610c8a81610ef0565b82525050565b610c9981610f1e565b82525050565b610ca881610f28565b82525050565b610cb781610f38565b82525050565b6000610cc882610c5e565b9150819050919050565b6000602082019050610ce76000830184610bf8565b92915050565b6000604082019050610d026000830185610bf8565b610d0f6020830184610bf8565b9392505050565b6000604082019050610d2b6000830185610c07565b8181036020830152610d3d8184610c25565b90509392505050565b600060a082019050610d5b6000830188610c16565b610d686020830187610cae565b610d756040830186610c81565b610d826060830185610c9f565b610d8f6080830184610c9f565b9695505050505050565b6000602082019050610dae6000830184610c90565b92915050565b6000606082019050610dc96000830186610c90565b610dd66020830185610c90565b610de36040830184610c90565b949350505050565b6000610df5610e06565b9050610e018282610f8e565b919050565b6000604051905090565b600067ffffffffffffffff821115610e2b57610e2a6110ac565b5b602082029050602081019050919050565b600067ffffffffffffffff821115610e5757610e566110ac565b5b610e60826110f9565b9050602081019050919050565b600081519050919050565b600082825260208201905092915050565b600081905092915050565b6000610e9f82610f1e565b9150610eaa83610f1e565b925082821015610ebd57610ebc610ff0565b5b828203905092915050565b6000610ed382610efe565b9050919050565b60008115159050919050565b6000819050919050565b600061ffff82169050919050565b600073ffffffffffffffffffffffffffffffffffffffff82169050919050565b6000819050919050565b600063ffffffff82169050919050565b600067ffffffffffffffff82169050919050565b82818337600083830152505050565b60005b83811015610f79578082015181840152602081019050610f5e565b83811115610f88576000848401525b50505050565b610f97826110f9565b810181811067ffffffffffffffff82111715610fb657610fb56110ac565b5b80604052505050565b6000610fca82610f1e565b9150610fd583610f1e565b925082610fe557610fe461101f565b5b828206905092915050565b7f4e487b7100000000000000000000000000000000000000000000000000000000600052601160045260246000fd5b7f4e487b7100000000000000000000000000000000000000000000000000000000600052601260045260246000fd5b7f4e487b7100000000000000000000000000000000000000000000000000000000600052602160045260246000fd5b7f4e487b7100000000000000000000000000000000000000000000000000000000600052603260045260246000fd5b7f4e487b7100000000000000000000000000000000000000000000000000000000600052604160045260246000fd5b600080fd5b600080fd5b600080fd5b600080fd5b600080fd5b600080fd5b6000601f19601f8301169050919050565b50565b61111681610f1e565b811461112157600080fd5b5056fea264697066735822122052cd9656e60c3b7a871067620fdb6719fb39afe4202caae8764a03ffab0bf2a764736f6c63430008070033","opcodes":"PUSH2 0x160 PUSH1 0x40 MSTORE CALLVALUE DUP1 ISZERO PUSH3 0x12 JUMPI PUSH1 0x0 DUP1 REVERT JUMPDEST POP PUSH1 0x40 MLOAD PUSH3 0x152C CODESIZE SUB DUP1 PUSH3 0x152C DUP4 CODECOPY DUP2 DUP2 ADD PUSH1 0x40 MSTORE DUP2 ADD SWAP1 PUSH3 0x38 SWAP2 SWAP1 PUSH3 0x1A6 JUMP JUMPDEST DUP6 DUP1 PUSH20 0xFFFFFFFFFFFFFFFFFFFFFFFFFFFFFFFFFFFFFFFF AND PUSH1 0x80 DUP2 PUSH20 0xFFFFFFFFFFFFFFFFFFFFFFFFFFFFFFFFFFFFFFFF AND PUSH1 0x60 SHL DUP2 MSTORE POP POP POP DUP6 PUSH20 0xFFFFFFFFFFFFFFFFFFFFFFFFFFFFFFFFFFFFFFFF AND PUSH1 0xA0 DUP2 PUSH20 0xFFFFFFFFFFFFFFFFFFFFFFFFFFFFFFFFFFFFFFFF AND PUSH1 0x60 SHL DUP2 MSTORE POP POP DUP4 PUSH1 0xE0 DUP2 DUP2 MSTORE POP POP DUP3 PUSH2 0x120 DUP2 DUP2 MSTORE POP POP DUP5 PUSH8 0xFFFFFFFFFFFFFFFF AND PUSH1 0xC0 DUP2 PUSH8 0xFFFFFFFFFFFFFFFF AND PUSH1 0xC0 SHL DUP2 MSTORE POP POP DUP2 PUSH2 0x140 DUP2 DUP2 MSTORE POP POP PUSH1 0x0 PUSH1 0x3 PUSH1 0x0 PUSH2 0x100 EXP DUP2 SLOAD DUP2 PUSH1 0xFF MUL NOT AND SWAP1 DUP4 PUSH1 0x1 DUP2 GT ISZERO PUSH3 0x10A JUMPI PUSH3 0x109 PUSH3 0x2AE JUMP JUMPDEST JUMPDEST MUL OR SWAP1 SSTORE POP DUP1 PUSH4 0xFFFFFFFF AND PUSH2 0x100 DUP2 PUSH4 0xFFFFFFFF AND PUSH1 0xE0 SHL DUP2 MSTORE POP POP POP POP POP POP POP POP PUSH3 0x364 JUMP JUMPDEST PUSH1 0x0 DUP2 MLOAD SWAP1 POP PUSH3 0x144 DUP2 PUSH3 0x2E2 JUMP JUMPDEST SWAP3 SWAP2 POP POP JUMP JUMPDEST PUSH1 0x0 DUP2 MLOAD SWAP1 POP PUSH3 0x15B DUP2 PUSH3 0x2FC JUMP JUMPDEST SWAP3 SWAP2 POP POP JUMP JUMPDEST PUSH1 0x0 DUP2 MLOAD SWAP1 POP PUSH3 0x172 DUP2 PUSH3 0x316 JUMP JUMPDEST SWAP3 SWAP2 POP POP JUMP JUMPDEST PUSH1 0x0 DUP2 MLOAD SWAP1 POP PUSH3 0x189 DUP2 PUSH3 0x330 JUMP JUMPDEST SWAP3 SWAP2 POP POP JUMP JUMPDEST PUSH1 0x0 DUP2 MLOAD SWAP1 POP PUSH3 0x1A0 DUP2 PUSH3 0x34A JUMP JUMPDEST SWAP3 SWAP2 POP POP JUMP JUMPDEST PUSH1 0x0 DUP1 PUSH1 0x0 DUP1 PUSH1 0x0 DUP1 PUSH1 0xC0 DUP8 DUP10 SUB SLT ISZERO PUSH3 0x1C6 JUMPI PUSH3 0x1C5 PUSH3 0x2DD JUMP JUMPDEST JUMPDEST PUSH1 0x0 PUSH3 0x1D6 DUP10 DUP3 DUP11 ADD PUSH3 0x133 JUMP JUMPDEST SWAP7 POP POP PUSH1 0x20 PUSH3 0x1E9 DUP10 DUP3 DUP11 ADD PUSH3 0x18F JUMP JUMPDEST SWAP6 POP POP PUSH1 0x40 PUSH3 0x1FC DUP10 DUP3 DUP11 ADD PUSH3 0x14A JUMP JUMPDEST SWAP5 POP POP PUSH1 0x60 PUSH3 0x20F DUP10 DUP3 DUP11 ADD PUSH3 0x161 JUMP JUMPDEST SWAP4 POP POP PUSH1 0x80 PUSH3 0x222 DUP10 DUP3 DUP11 ADD PUSH3 0x161 JUMP JUMPDEST SWAP3 POP POP PUSH1 0xA0 PUSH3 0x235 DUP10 DUP3 DUP11 ADD PUSH3 0x178 JUMP JUMPDEST SWAP2 POP POP SWAP3 SWAP6 POP SWAP3 SWAP6 POP SWAP3 SWAP6 JUMP JUMPDEST PUSH1 0x0 PUSH3 0x24F DUP3 PUSH3 0x260 JUMP JUMPDEST SWAP1 POP SWAP2 SWAP1 POP JUMP JUMPDEST PUSH1 0x0 DUP2 SWAP1 POP SWAP2 SWAP1 POP JUMP JUMPDEST PUSH1 0x0 PUSH20 0xFFFFFFFFFFFFFFFFFFFFFFFFFFFFFFFFFFFFFFFF DUP3 AND SWAP1 POP SWAP2 SWAP1 POP JUMP JUMPDEST PUSH1 0x0 DUP2 SWAP1 POP SWAP2 SWAP1 POP JUMP JUMPDEST PUSH1 0x0 PUSH4 0xFFFFFFFF DUP3 AND SWAP1 POP SWAP2 SWAP1 POP JUMP JUMPDEST PUSH1 0x0 PUSH8 0xFFFFFFFFFFFFFFFF DUP3 AND SWAP1 POP SWAP2 SWAP1 POP JUMP JUMPDEST PUSH32 0x4E487B7100000000000000000000000000000000000000000000000000000000 PUSH1 0x0 MSTORE PUSH1 0x21 PUSH1 0x4 MSTORE PUSH1 0x24 PUSH1 0x0 REVERT JUMPDEST PUSH1 0x0 DUP1 REVERT JUMPDEST PUSH3 0x2ED DUP2 PUSH3 0x242 JUMP JUMPDEST DUP2 EQ PUSH3 0x2F9 JUMPI PUSH1 0x0 DUP1 REVERT JUMPDEST POP JUMP JUMPDEST PUSH3 0x307 DUP2 PUSH3 0x256 JUMP JUMPDEST DUP2 EQ PUSH3 0x313 JUMPI PUSH1 0x0 DUP1 REVERT JUMPDEST POP JUMP JUMPDEST PUSH3 0x321 DUP2 PUSH3 0x280 JUMP JUMPDEST DUP2 EQ PUSH3 0x32D JUMPI PUSH1 0x0 DUP1 REVERT JUMPDEST POP JUMP JUMPDEST PUSH3 0x33B DUP2 PUSH3 0x28A JUMP JUMPDEST DUP2 EQ PUSH3 0x347 JUMPI PUSH1 0x0 DUP1 REVERT JUMPDEST POP JUMP JUMPDEST PUSH3 0x355 DUP2 PUSH3 0x29A JUMP JUMPDEST DUP2 EQ PUSH3 0x361 JUMPI PUSH1 0x0 DUP1 REVERT JUMPDEST POP JUMP JUMPDEST PUSH1 0x80 MLOAD PUSH1 0x60 SHR PUSH1 0xA0 MLOAD PUSH1 0x60 SHR PUSH1 0xC0 MLOAD PUSH1 0xC0 SHR PUSH1 0xE0 MLOAD PUSH2 0x100 MLOAD PUSH1 0xE0 SHR PUSH2 0x120 MLOAD PUSH2 0x140 MLOAD PUSH2 0x115A PUSH3 0x3D2 PUSH1 0x0 CODECOPY PUSH1 0x0 PUSH2 0x29A ADD MSTORE PUSH1 0x0 PUSH2 0x690 ADD MSTORE PUSH1 0x0 PUSH2 0x53F ADD MSTORE PUSH1 0x0 PUSH2 0x4FB ADD MSTORE PUSH1 0x0 PUSH2 0x51C ADD MSTORE PUSH1 0x0 PUSH2 0x4BF ADD MSTORE PUSH1 0x0 DUP2 DUP2 PUSH2 0x1DA ADD MSTORE PUSH2 0x22E ADD MSTORE PUSH2 0x115A PUSH1 0x0 RETURN INVALID PUSH1 0x80 PUSH1 0x40 MSTORE PUSH1 0x4 CALLDATASIZE LT PUSH2 0x7B JUMPI PUSH1 0x0 CALLDATALOAD PUSH1 0xE0 SHR DUP1 PUSH4 0x53A2C19A GT PUSH2 0x4E JUMPI DUP1 PUSH4 0x53A2C19A EQ PUSH2 0x107 JUMPI DUP1 PUSH4 0x5F1B0FD8 EQ PUSH2 0x132 JUMPI DUP1 PUSH4 0x6E04FF0D EQ PUSH2 0x15D JUMPI DUP1 PUSH4 0xE55AE4E8 EQ PUSH2 0x19B JUMPI PUSH2 0x7B JUMP JUMPDEST DUP1 PUSH4 0x1FE543E3 EQ PUSH2 0x80 JUMPI DUP1 PUSH4 0x2CFCC539 EQ PUSH2 0xA9 JUMPI DUP1 PUSH4 0x4585E33B EQ PUSH2 0xB3 JUMPI DUP1 PUSH4 0x473F1DDC EQ PUSH2 0xDC JUMPI JUMPDEST PUSH1 0x0 DUP1 REVERT JUMPDEST CALLVALUE DUP1 ISZERO PUSH2 0x8C JUMPI PUSH1 0x0 DUP1 REVERT JUMPDEST POP PUSH2 0xA7 PUSH1 0x4 DUP1 CALLDATASIZE SUB DUP2 ADD SWAP1 PUSH2 0xA2 SWAP2 SWAP1 PUSH2 0xB9C JUMP JUMPDEST PUSH2 0x1D8 JUMP JUMPDEST STOP JUMPDEST PUSH2 0xB1 PUSH2 0x298 JUMP JUMPDEST STOP JUMPDEST CALLVALUE DUP1 ISZERO PUSH2 0xBF JUMPI PUSH1 0x0 DUP1 REVERT JUMPDEST POP PUSH2 0xDA PUSH1 0x4 DUP1 CALLDATASIZE SUB DUP2 ADD SWAP1 PUSH2 0xD5 SWAP2 SWAP1 PUSH2 0xAAC JUMP JUMPDEST PUSH2 0x407 JUMP JUMPDEST STOP JUMPDEST CALLVALUE DUP1 ISZERO PUSH2 0xE8 JUMPI PUSH1 0x0 DUP1 REVERT JUMPDEST POP PUSH2 0xF1 PUSH2 0x607 JUMP JUMPDEST PUSH1 0x40 MLOAD PUSH2 0xFE SWAP2 SWAP1 PUSH2 0xCD2 JUMP JUMPDEST PUSH1 0x40 MLOAD DUP1 SWAP2 SUB SWAP1 RETURN JUMPDEST CALLVALUE DUP1 ISZERO PUSH2 0x113 JUMPI PUSH1 0x0 DUP1 REVERT JUMPDEST POP PUSH2 0x11C PUSH2 0x631 JUMP JUMPDEST PUSH1 0x40 MLOAD PUSH2 0x129 SWAP2 SWAP1 PUSH2 0xD99 JUMP JUMPDEST PUSH1 0x40 MLOAD DUP1 SWAP2 SUB SWAP1 RETURN JUMPDEST CALLVALUE DUP1 ISZERO PUSH2 0x13E JUMPI PUSH1 0x0 DUP1 REVERT JUMPDEST POP PUSH2 0x147 PUSH2 0x640 JUMP JUMPDEST PUSH1 0x40 MLOAD PUSH2 0x154 SWAP2 SWAP1 PUSH2 0xD99 JUMP JUMPDEST PUSH1 0x40 MLOAD DUP1 SWAP2 SUB SWAP1 RETURN JUMPDEST CALLVALUE DUP1 ISZERO PUSH2 0x169 JUMPI PUSH1 0x0 DUP1 REVERT JUMPDEST POP PUSH2 0x184 PUSH1 0x4 DUP1 CALLDATASIZE SUB DUP2 ADD SWAP1 PUSH2 0x17F SWAP2 SWAP1 PUSH2 0xAF9 JUMP JUMPDEST PUSH2 0x64D JUMP JUMPDEST PUSH1 0x40 MLOAD PUSH2 0x192 SWAP3 SWAP2 SWAP1 PUSH2 0xD16 JUMP JUMPDEST PUSH1 0x40 MLOAD DUP1 SWAP2 SUB SWAP1 RETURN JUMPDEST CALLVALUE DUP1 ISZERO PUSH2 0x1A7 JUMPI PUSH1 0x0 DUP1 REVERT JUMPDEST POP PUSH2 0x1C2 PUSH1 0x4 DUP1 CALLDATASIZE SUB DUP2 ADD SWAP1 PUSH2 0x1BD SWAP2 SWAP1 PUSH2 0xB42 JUMP JUMPDEST PUSH2 0x735 JUMP JUMPDEST PUSH1 0x40 MLOAD PUSH2 0x1CF SWAP2 SWAP1 PUSH2 0xCD2 JUMP JUMPDEST PUSH1 0x40 MLOAD DUP1 SWAP2 SUB SWAP1 RETURN JUMPDEST PUSH32 0x0 PUSH20 0xFFFFFFFFFFFFFFFFFFFFFFFFFFFFFFFFFFFFFFFF AND CALLER PUSH20 0xFFFFFFFFFFFFFFFFFFFFFFFFFFFFFFFFFFFFFFFF AND EQ PUSH2 0x28A JUMPI CALLER PUSH32 0x0 PUSH1 0x40 MLOAD PUSH32 0x1CF993F400000000000000000000000000000000000000000000000000000000 DUP2 MSTORE PUSH1 0x4 ADD PUSH2 0x281 SWAP3 SWAP2 SWAP1 PUSH2 0xCED JUMP JUMPDEST PUSH1 0x40 MLOAD DUP1 SWAP2 SUB SWAP1 REVERT JUMPDEST PUSH2 0x294 DUP3 DUP3 PUSH2 0x77D JUMP JUMPDEST POP POP JUMP JUMPDEST PUSH32 0x0 CALLVALUE LT ISZERO PUSH2 0x2F2 JUMPI PUSH1 0x40 MLOAD PUSH32 0x3038C00A00000000000000000000000000000000000000000000000000000000 DUP2 MSTORE PUSH1 0x4 ADD PUSH1 0x40 MLOAD DUP1 SWAP2 SUB SWAP1 REVERT JUMPDEST PUSH1 0x0 PUSH1 0x1 DUP2 GT ISZERO PUSH2 0x306 JUMPI PUSH2 0x305 PUSH2 0x104E JUMP JUMPDEST JUMPDEST PUSH1 0x3 PUSH1 0x0 SWAP1 SLOAD SWAP1 PUSH2 0x100 EXP SWAP1 DIV PUSH1 0xFF AND PUSH1 0x1 DUP2 GT ISZERO PUSH2 0x328 JUMPI PUSH2 0x327 PUSH2 0x104E JUMP JUMPDEST JUMPDEST EQ PUSH2 0x35F JUMPI PUSH1 0x40 MLOAD PUSH32 0xD24A271400000000000000000000000000000000000000000000000000000000 DUP2 MSTORE PUSH1 0x4 ADD PUSH1 0x40 MLOAD DUP1 SWAP2 SUB SWAP1 REVERT JUMPDEST PUSH1 0x2 CALLER SWAP1 DUP1 PUSH1 0x1 DUP2 SLOAD ADD DUP1 DUP3 SSTORE DUP1 SWAP2 POP POP PUSH1 0x1 SWAP1 SUB SWAP1 PUSH1 0x0 MSTORE PUSH1 0x20 PUSH1 0x0 KECCAK256 ADD PUSH1 0x0 SWAP1 SWAP2 SWAP1 SWAP2 SWAP1 SWAP2 PUSH2 0x100 EXP DUP2 SLOAD DUP2 PUSH20 0xFFFFFFFFFFFFFFFFFFFFFFFFFFFFFFFFFFFFFFFF MUL NOT AND SWAP1 DUP4 PUSH20 0xFFFFFFFFFFFFFFFFFFFFFFFFFFFFFFFFFFFFFFFF AND MUL OR SWAP1 SSTORE POP CALLER PUSH20 0xFFFFFFFFFFFFFFFFFFFFFFFFFFFFFFFFFFFFFFFF AND PUSH32 0x805E1D667BDDB8A95F0F09880CF94F403FB596CE79928D9F29B74203BA284D4 PUSH1 0x40 MLOAD PUSH1 0x40 MLOAD DUP1 SWAP2 SUB SWAP1 LOG2 JUMP JUMPDEST PUSH1 0x0 PUSH2 0x421 PUSH1 0x40 MLOAD DUP1 PUSH1 0x20 ADD PUSH1 0x40 MSTORE DUP1 PUSH1 0x0 DUP2 MSTORE POP PUSH2 0x64D JUMP JUMPDEST POP SWAP1 POP DUP1 PUSH2 0x490 JUMPI SELFBALANCE PUSH1 0x2 DUP1 SLOAD SWAP1 POP PUSH1 0x3 PUSH1 0x0 SWAP1 SLOAD SWAP1 PUSH2 0x100 EXP SWAP1 DIV PUSH1 0xFF AND PUSH1 0x1 DUP2 GT ISZERO PUSH2 0x452 JUMPI PUSH2 0x451 PUSH2 0x104E JUMP JUMPDEST JUMPDEST PUSH1 0x40 MLOAD PUSH32 0x584327AA00000000000000000000000000000000000000000000000000000000 DUP2 MSTORE PUSH1 0x4 ADD PUSH2 0x487 SWAP4 SWAP3 SWAP2 SWAP1 PUSH2 0xDB4 JUMP JUMPDEST PUSH1 0x40 MLOAD DUP1 SWAP2 SUB SWAP1 REVERT JUMPDEST PUSH1 0x1 PUSH1 0x3 PUSH1 0x0 PUSH2 0x100 EXP DUP2 SLOAD DUP2 PUSH1 0xFF MUL NOT AND SWAP1 DUP4 PUSH1 0x1 DUP2 GT ISZERO PUSH2 0x4B6 JUMPI PUSH2 0x4B5 PUSH2 0x104E JUMP JUMPDEST JUMPDEST MUL OR SWAP1 SSTORE POP PUSH1 0x0 PUSH32 0x0 PUSH20 0xFFFFFFFFFFFFFFFFFFFFFFFFFFFFFFFFFFFFFFFF AND PUSH4 0x5D3B1D30 PUSH32 0x0 PUSH32 0x0 PUSH1 0x3 PUSH32 0x0 PUSH1 0x1 PUSH1 0x40 MLOAD DUP7 PUSH4 0xFFFFFFFF AND PUSH1 0xE0 SHL DUP2 MSTORE PUSH1 0x4 ADD PUSH2 0x580 SWAP6 SWAP5 SWAP4 SWAP3 SWAP2 SWAP1 PUSH2 0xD46 JUMP JUMPDEST PUSH1 0x20 PUSH1 0x40 MLOAD DUP1 DUP4 SUB DUP2 PUSH1 0x0 DUP8 DUP1 EXTCODESIZE ISZERO DUP1 ISZERO PUSH2 0x59A JUMPI PUSH1 0x0 DUP1 REVERT JUMPDEST POP GAS CALL ISZERO DUP1 ISZERO PUSH2 0x5AE JUMPI RETURNDATASIZE PUSH1 0x0 DUP1 RETURNDATACOPY RETURNDATASIZE PUSH1 0x0 REVERT JUMPDEST POP POP POP POP PUSH1 0x40 MLOAD RETURNDATASIZE PUSH1 0x1F NOT PUSH1 0x1F DUP3 ADD AND DUP3 ADD DUP1 PUSH1 0x40 MSTORE POP DUP2 ADD SWAP1 PUSH2 0x5D2 SWAP2 SWAP1 PUSH2 0xB6F JUMP JUMPDEST SWAP1 POP DUP1 PUSH32 0xDE6349B018D6C03D837B67D9A198A6BA4842546F2295FE963FAE141E5DBAEF81 PUSH1 0x40 MLOAD PUSH1 0x40 MLOAD DUP1 SWAP2 SUB SWAP1 LOG2 POP POP POP POP JUMP JUMPDEST PUSH1 0x0 PUSH1 0x1 PUSH1 0x0 SWAP1 SLOAD SWAP1 PUSH2 0x100 EXP SWAP1 DIV PUSH20 0xFFFFFFFFFFFFFFFFFFFFFFFFFFFFFFFFFFFFFFFF AND SWAP1 POP SWAP1 JUMP JUMPDEST PUSH1 0x0 PUSH1 0x1 PUSH4 0xFFFFFFFF AND SWAP1 POP SWAP1 JUMP JUMPDEST PUSH1 0x0 PUSH1 0x3 PUSH2 0xFFFF AND SWAP1 POP SWAP1 JUMP JUMPDEST PUSH1 0x0 PUSH1 0x60 PUSH1 0x0 PUSH1 0x3 PUSH1 0x0 SWAP1 SLOAD SWAP1 PUSH2 0x100 EXP SWAP1 DIV PUSH1 0xFF AND PUSH1 0x1 DUP2 GT ISZERO PUSH2 0x675 JUMPI PUSH2 0x674 PUSH2 0x104E JUMP JUMPDEST JUMPDEST PUSH1 0x0 PUSH1 0x1 DUP2 GT ISZERO PUSH2 0x689 JUMPI PUSH2 0x688 PUSH2 0x104E JUMP JUMPDEST JUMPDEST EQ SWAP1 POP PUSH1 0x0 PUSH32 0x0 PUSH1 0x0 SLOAD TIMESTAMP PUSH2 0x6BD SWAP2 SWAP1 PUSH2 0xE94 JUMP JUMPDEST GT SWAP1 POP PUSH1 0x0 DUP1 PUSH1 0x2 DUP1 SLOAD SWAP1 POP GT SWAP1 POP PUSH1 0x0 DUP1 SELFBALANCE GT SWAP1 POP DUP3 DUP1 ISZERO PUSH2 0x6DD JUMPI POP DUP4 JUMPDEST DUP1 ISZERO PUSH2 0x6E6 JUMPI POP DUP1 JUMPDEST DUP1 ISZERO PUSH2 0x6EF JUMPI POP DUP2 JUMPDEST SWAP6 POP DUP6 PUSH1 0x40 MLOAD DUP1 PUSH1 0x40 ADD PUSH1 0x40 MSTORE DUP1 PUSH1 0x3 DUP2 MSTORE PUSH1 0x20 ADD PUSH32 0x3078300000000000000000000000000000000000000000000000000000000000 DUP2 MSTORE POP SWAP6 POP SWAP6 POP POP POP POP POP SWAP2 POP SWAP2 JUMP JUMPDEST PUSH1 0x0 PUSH1 0x2 DUP3 DUP2 SLOAD DUP2 LT PUSH2 0x74B JUMPI PUSH2 0x74A PUSH2 0x107D JUMP JUMPDEST JUMPDEST SWAP1 PUSH1 0x0 MSTORE PUSH1 0x20 PUSH1 0x0 KECCAK256 ADD PUSH1 0x0 SWAP1 SLOAD SWAP1 PUSH2 0x100 EXP SWAP1 DIV PUSH20 0xFFFFFFFFFFFFFFFFFFFFFFFFFFFFFFFFFFFFFFFF AND SWAP1 POP SWAP2 SWAP1 POP JUMP JUMPDEST PUSH1 0x0 PUSH1 0x2 DUP1 SLOAD SWAP1 POP DUP3 PUSH1 0x0 DUP2 MLOAD DUP2 LT PUSH2 0x799 JUMPI PUSH2 0x798 PUSH2 0x107D JUMP JUMPDEST JUMPDEST PUSH1 0x20 MUL PUSH1 0x20 ADD ADD MLOAD PUSH2 0x7AB SWAP2 SWAP1 PUSH2 0xFBF JUMP JUMPDEST SWAP1 POP PUSH1 0x0 PUSH1 0x2 DUP3 DUP2 SLOAD DUP2 LT PUSH2 0x7C3 JUMPI PUSH2 0x7C2 PUSH2 0x107D JUMP JUMPDEST JUMPDEST SWAP1 PUSH1 0x0 MSTORE PUSH1 0x20 PUSH1 0x0 KECCAK256 ADD PUSH1 0x0 SWAP1 SLOAD SWAP1 PUSH2 0x100 EXP SWAP1 DIV PUSH20 0xFFFFFFFFFFFFFFFFFFFFFFFFFFFFFFFFFFFFFFFF AND SWAP1 POP DUP1 PUSH1 0x1 PUSH1 0x0 PUSH2 0x100 EXP DUP2 SLOAD DUP2 PUSH20 0xFFFFFFFFFFFFFFFFFFFFFFFFFFFFFFFFFFFFFFFF MUL NOT AND SWAP1 DUP4 PUSH20 0xFFFFFFFFFFFFFFFFFFFFFFFFFFFFFFFFFFFFFFFF AND MUL OR SWAP1 SSTORE POP PUSH1 0x0 DUP2 PUSH20 0xFFFFFFFFFFFFFFFFFFFFFFFFFFFFFFFFFFFFFFFF AND SELFBALANCE PUSH1 0x40 MLOAD PUSH2 0x857 SWAP1 PUSH2 0xCBD JUMP JUMPDEST PUSH1 0x0 PUSH1 0x40 MLOAD DUP1 DUP4 SUB DUP2 DUP6 DUP8 GAS CALL SWAP3 POP POP POP RETURNDATASIZE DUP1 PUSH1 0x0 DUP2 EQ PUSH2 0x894 JUMPI PUSH1 0x40 MLOAD SWAP2 POP PUSH1 0x1F NOT PUSH1 0x3F RETURNDATASIZE ADD AND DUP3 ADD PUSH1 0x40 MSTORE RETURNDATASIZE DUP3 MSTORE RETURNDATASIZE PUSH1 0x0 PUSH1 0x20 DUP5 ADD RETURNDATACOPY PUSH2 0x899 JUMP JUMPDEST PUSH1 0x60 SWAP2 POP JUMPDEST POP POP SWAP1 POP DUP1 PUSH2 0x8D4 JUMPI PUSH1 0x40 MLOAD PUSH32 0xA1D04B3900000000000000000000000000000000000000000000000000000000 DUP2 MSTORE PUSH1 0x4 ADD PUSH1 0x40 MLOAD DUP1 SWAP2 SUB SWAP1 REVERT JUMPDEST DUP2 PUSH20 0xFFFFFFFFFFFFFFFFFFFFFFFFFFFFFFFFFFFFFFFF AND PUSH32 0x5B690EC4A06FE979403046EAEEA5B3CE38524683C3001F662C8B5A829632F7DF PUSH1 0x40 MLOAD PUSH1 0x40 MLOAD DUP1 SWAP2 SUB SWAP1 LOG2 POP POP POP POP POP JUMP JUMPDEST PUSH1 0x0 PUSH2 0x931 PUSH2 0x92C DUP5 PUSH2 0xE10 JUMP JUMPDEST PUSH2 0xDEB JUMP JUMPDEST SWAP1 POP DUP1 DUP4 DUP3 MSTORE PUSH1 0x20 DUP3 ADD SWAP1 POP DUP3 DUP6 PUSH1 0x20 DUP7 MUL DUP3 ADD GT ISZERO PUSH2 0x954 JUMPI PUSH2 0x953 PUSH2 0x10E5 JUMP JUMPDEST JUMPDEST PUSH1 0x0 JUMPDEST DUP6 DUP2 LT ISZERO PUSH2 0x984 JUMPI DUP2 PUSH2 0x96A DUP9 DUP3 PUSH2 0xA82 JUMP JUMPDEST DUP5 MSTORE PUSH1 0x20 DUP5 ADD SWAP4 POP PUSH1 0x20 DUP4 ADD SWAP3 POP POP PUSH1 0x1 DUP2 ADD SWAP1 POP PUSH2 0x957 JUMP JUMPDEST POP POP POP SWAP4 SWAP3 POP POP POP JUMP JUMPDEST PUSH1 0x0 PUSH2 0x9A1 PUSH2 0x99C DUP5 PUSH2 0xE3C JUMP JUMPDEST PUSH2 0xDEB JUMP JUMPDEST SWAP1 POP DUP3 DUP2 MSTORE PUSH1 0x20 DUP2 ADD DUP5 DUP5 DUP5 ADD GT ISZERO PUSH2 0x9BD JUMPI PUSH2 0x9BC PUSH2 0x10EA JUMP JUMPDEST JUMPDEST PUSH2 0x9C8 DUP5 DUP3 DUP6 PUSH2 0xF4C JUMP JUMPDEST POP SWAP4 SWAP3 POP POP POP JUMP JUMPDEST PUSH1 0x0 DUP3 PUSH1 0x1F DUP4 ADD SLT PUSH2 0x9E5 JUMPI PUSH2 0x9E4 PUSH2 0x10E0 JUMP JUMPDEST JUMPDEST DUP2 CALLDATALOAD PUSH2 0x9F5 DUP5 DUP3 PUSH1 0x20 DUP7 ADD PUSH2 0x91E JUMP JUMPDEST SWAP2 POP POP SWAP3 SWAP2 POP POP JUMP JUMPDEST PUSH1 0x0 DUP1 DUP4 PUSH1 0x1F DUP5 ADD SLT PUSH2 0xA14 JUMPI PUSH2 0xA13 PUSH2 0x10E0 JUMP JUMPDEST JUMPDEST DUP3 CALLDATALOAD SWAP1 POP PUSH8 0xFFFFFFFFFFFFFFFF DUP2 GT ISZERO PUSH2 0xA31 JUMPI PUSH2 0xA30 PUSH2 0x10DB JUMP JUMPDEST JUMPDEST PUSH1 0x20 DUP4 ADD SWAP2 POP DUP4 PUSH1 0x1 DUP3 MUL DUP4 ADD GT ISZERO PUSH2 0xA4D JUMPI PUSH2 0xA4C PUSH2 0x10E5 JUMP JUMPDEST JUMPDEST SWAP3 POP SWAP3 SWAP1 POP JUMP JUMPDEST PUSH1 0x0 DUP3 PUSH1 0x1F DUP4 ADD SLT PUSH2 0xA69 JUMPI PUSH2 0xA68 PUSH2 0x10E0 JUMP JUMPDEST JUMPDEST DUP2 CALLDATALOAD PUSH2 0xA79 DUP5 DUP3 PUSH1 0x20 DUP7 ADD PUSH2 0x98E JUMP JUMPDEST SWAP2 POP POP SWAP3 SWAP2 POP POP JUMP JUMPDEST PUSH1 0x0 DUP2 CALLDATALOAD SWAP1 POP PUSH2 0xA91 DUP2 PUSH2 0x110D JUMP JUMPDEST SWAP3 SWAP2 POP POP JUMP JUMPDEST PUSH1 0x0 DUP2 MLOAD SWAP1 POP PUSH2 0xAA6 DUP2 PUSH2 0x110D JUMP JUMPDEST SWAP3 SWAP2 POP POP JUMP JUMPDEST PUSH1 0x0 DUP1 PUSH1 0x20 DUP4 DUP6 SUB SLT ISZERO PUSH2 0xAC3 JUMPI PUSH2 0xAC2 PUSH2 0x10F4 JUMP JUMPDEST JUMPDEST PUSH1 0x0 DUP4 ADD CALLDATALOAD PUSH8 0xFFFFFFFFFFFFFFFF DUP2 GT ISZERO PUSH2 0xAE1 JUMPI PUSH2 0xAE0 PUSH2 0x10EF JUMP JUMPDEST JUMPDEST PUSH2 0xAED DUP6 DUP3 DUP7 ADD PUSH2 0x9FE JUMP JUMPDEST SWAP3 POP SWAP3 POP POP SWAP3 POP SWAP3 SWAP1 POP JUMP JUMPDEST PUSH1 0x0 PUSH1 0x20 DUP3 DUP5 SUB SLT ISZERO PUSH2 0xB0F JUMPI PUSH2 0xB0E PUSH2 0x10F4 JUMP JUMPDEST JUMPDEST PUSH1 0x0 DUP3 ADD CALLDATALOAD PUSH8 0xFFFFFFFFFFFFFFFF DUP2 GT ISZERO PUSH2 0xB2D JUMPI PUSH2 0xB2C PUSH2 0x10EF JUMP JUMPDEST JUMPDEST PUSH2 0xB39 DUP5 DUP3 DUP6 ADD PUSH2 0xA54 JUMP JUMPDEST SWAP2 POP POP SWAP3 SWAP2 POP POP JUMP JUMPDEST PUSH1 0x0 PUSH1 0x20 DUP3 DUP5 SUB SLT ISZERO PUSH2 0xB58 JUMPI PUSH2 0xB57 PUSH2 0x10F4 JUMP JUMPDEST JUMPDEST PUSH1 0x0 PUSH2 0xB66 DUP5 DUP3 DUP6 ADD PUSH2 0xA82 JUMP JUMPDEST SWAP2 POP POP SWAP3 SWAP2 POP POP JUMP JUMPDEST PUSH1 0x0 PUSH1 0x20 DUP3 DUP5 SUB SLT ISZERO PUSH2 0xB85 JUMPI PUSH2 0xB84 PUSH2 0x10F4 JUMP JUMPDEST JUMPDEST PUSH1 0x0 PUSH2 0xB93 DUP5 DUP3 DUP6 ADD PUSH2 0xA97 JUMP JUMPDEST SWAP2 POP POP SWAP3 SWAP2 POP POP JUMP JUMPDEST PUSH1 0x0 DUP1 PUSH1 0x40 DUP4 DUP6 SUB SLT ISZERO PUSH2 0xBB3 JUMPI PUSH2 0xBB2 PUSH2 0x10F4 JUMP JUMPDEST JUMPDEST PUSH1 0x0 PUSH2 0xBC1 DUP6 DUP3 DUP7 ADD PUSH2 0xA82 JUMP JUMPDEST SWAP3 POP POP PUSH1 0x20 DUP4 ADD CALLDATALOAD PUSH8 0xFFFFFFFFFFFFFFFF DUP2 GT ISZERO PUSH2 0xBE2 JUMPI PUSH2 0xBE1 PUSH2 0x10EF JUMP JUMPDEST JUMPDEST PUSH2 0xBEE DUP6 DUP3 DUP7 ADD PUSH2 0x9D0 JUMP JUMPDEST SWAP2 POP POP SWAP3 POP SWAP3 SWAP1 POP JUMP JUMPDEST PUSH2 0xC01 DUP2 PUSH2 0xEC8 JUMP JUMPDEST DUP3 MSTORE POP POP JUMP JUMPDEST PUSH2 0xC10 DUP2 PUSH2 0xEDA JUMP JUMPDEST DUP3 MSTORE POP POP JUMP JUMPDEST PUSH2 0xC1F DUP2 PUSH2 0xEE6 JUMP JUMPDEST DUP3 MSTORE POP POP JUMP JUMPDEST PUSH1 0x0 PUSH2 0xC30 DUP3 PUSH2 0xE6D JUMP JUMPDEST PUSH2 0xC3A DUP2 DUP6 PUSH2 0xE78 JUMP JUMPDEST SWAP4 POP PUSH2 0xC4A DUP2 DUP6 PUSH1 0x20 DUP7 ADD PUSH2 0xF5B JUMP JUMPDEST PUSH2 0xC53 DUP2 PUSH2 0x10F9 JUMP JUMPDEST DUP5 ADD SWAP2 POP POP SWAP3 SWAP2 POP POP JUMP JUMPDEST PUSH1 0x0 PUSH2 0xC6B PUSH1 0x0 DUP4 PUSH2 0xE89 JUMP JUMPDEST SWAP2 POP PUSH2 0xC76 DUP3 PUSH2 0x110A JUMP JUMPDEST PUSH1 0x0 DUP3 ADD SWAP1 POP SWAP2 SWAP1 POP JUMP JUMPDEST PUSH2 0xC8A DUP2 PUSH2 0xEF0 JUMP JUMPDEST DUP3 MSTORE POP POP JUMP JUMPDEST PUSH2 0xC99 DUP2 PUSH2 0xF1E JUMP JUMPDEST DUP3 MSTORE POP POP JUMP JUMPDEST PUSH2 0xCA8 DUP2 PUSH2 0xF28 JUMP JUMPDEST DUP3 MSTORE POP POP JUMP JUMPDEST PUSH2 0xCB7 DUP2 PUSH2 0xF38 JUMP JUMPDEST DUP3 MSTORE POP POP JUMP JUMPDEST PUSH1 0x0 PUSH2 0xCC8 DUP3 PUSH2 0xC5E JUMP JUMPDEST SWAP2 POP DUP2 SWAP1 POP SWAP2 SWAP1 POP JUMP JUMPDEST PUSH1 0x0 PUSH1 0x20 DUP3 ADD SWAP1 POP PUSH2 0xCE7 PUSH1 0x0 DUP4 ADD DUP5 PUSH2 0xBF8 JUMP JUMPDEST SWAP3 SWAP2 POP POP JUMP JUMPDEST PUSH1 0x0 PUSH1 0x40 DUP3 ADD SWAP1 POP PUSH2 0xD02 PUSH1 0x0 DUP4 ADD DUP6 PUSH2 0xBF8 JUMP JUMPDEST PUSH2 0xD0F PUSH1 0x20 DUP4 ADD DUP5 PUSH2 0xBF8 JUMP JUMPDEST SWAP4 SWAP3 POP POP POP JUMP JUMPDEST PUSH1 0x0 PUSH1 0x40 DUP3 ADD SWAP1 POP PUSH2 0xD2B PUSH1 0x0 DUP4 ADD DUP6 PUSH2 0xC07 JUMP JUMPDEST DUP2 DUP2 SUB PUSH1 0x20 DUP4 ADD MSTORE PUSH2 0xD3D DUP2 DUP5 PUSH2 0xC25 JUMP JUMPDEST SWAP1 POP SWAP4 SWAP3 POP POP POP JUMP JUMPDEST PUSH1 0x0 PUSH1 0xA0 DUP3 ADD SWAP1 POP PUSH2 0xD5B PUSH1 0x0 DUP4 ADD DUP9 PUSH2 0xC16 JUMP JUMPDEST PUSH2 0xD68 PUSH1 0x20 DUP4 ADD DUP8 PUSH2 0xCAE JUMP JUMPDEST PUSH2 0xD75 PUSH1 0x40 DUP4 ADD DUP7 PUSH2 0xC81 JUMP JUMPDEST PUSH2 0xD82 PUSH1 0x60 DUP4 ADD DUP6 PUSH2 0xC9F JUMP JUMPDEST PUSH2 0xD8F PUSH1 0x80 DUP4 ADD DUP5 PUSH2 0xC9F JUMP JUMPDEST SWAP7 SWAP6 POP POP POP POP POP POP JUMP JUMPDEST PUSH1 0x0 PUSH1 0x20 DUP3 ADD SWAP1 POP PUSH2 0xDAE PUSH1 0x0 DUP4 ADD DUP5 PUSH2 0xC90 JUMP JUMPDEST SWAP3 SWAP2 POP POP JUMP JUMPDEST PUSH1 0x0 PUSH1 0x60 DUP3 ADD SWAP1 POP PUSH2 0xDC9 PUSH1 0x0 DUP4 ADD DUP7 PUSH2 0xC90 JUMP JUMPDEST PUSH2 0xDD6 PUSH1 0x20 DUP4 ADD DUP6 PUSH2 0xC90 JUMP JUMPDEST PUSH2 0xDE3 PUSH1 0x40 DUP4 ADD DUP5 PUSH2 0xC90 JUMP JUMPDEST SWAP5 SWAP4 POP POP POP POP JUMP JUMPDEST PUSH1 0x0 PUSH2 0xDF5 PUSH2 0xE06 JUMP JUMPDEST SWAP1 POP PUSH2 0xE01 DUP3 DUP3 PUSH2 0xF8E JUMP JUMPDEST SWAP2 SWAP1 POP JUMP JUMPDEST PUSH1 0x0 PUSH1 0x40 MLOAD SWAP1 POP SWAP1 JUMP JUMPDEST PUSH1 0x0 PUSH8 0xFFFFFFFFFFFFFFFF DUP3 GT ISZERO PUSH2 0xE2B JUMPI PUSH2 0xE2A PUSH2 0x10AC JUMP JUMPDEST JUMPDEST PUSH1 0x20 DUP3 MUL SWAP1 POP PUSH1 0x20 DUP2 ADD SWAP1 POP SWAP2 SWAP1 POP JUMP JUMPDEST PUSH1 0x0 PUSH8 0xFFFFFFFFFFFFFFFF DUP3 GT ISZERO PUSH2 0xE57 JUMPI PUSH2 0xE56 PUSH2 0x10AC JUMP JUMPDEST JUMPDEST PUSH2 0xE60 DUP3 PUSH2 0x10F9 JUMP JUMPDEST SWAP1 POP PUSH1 0x20 DUP2 ADD SWAP1 POP SWAP2 SWAP1 POP JUMP JUMPDEST PUSH1 0x0 DUP2 MLOAD SWAP1 POP SWAP2 SWAP1 POP JUMP JUMPDEST PUSH1 0x0 DUP3 DUP3 MSTORE PUSH1 0x20 DUP3 ADD SWAP1 POP SWAP3 SWAP2 POP POP JUMP JUMPDEST PUSH1 0x0 DUP2 SWAP1 POP SWAP3 SWAP2 POP POP JUMP JUMPDEST PUSH1 0x0 PUSH2 0xE9F DUP3 PUSH2 0xF1E JUMP JUMPDEST SWAP2 POP PUSH2 0xEAA DUP4 PUSH2 0xF1E JUMP JUMPDEST SWAP3 POP DUP3 DUP3 LT ISZERO PUSH2 0xEBD JUMPI PUSH2 0xEBC PUSH2 0xFF0 JUMP JUMPDEST JUMPDEST DUP3 DUP3 SUB SWAP1 POP SWAP3 SWAP2 POP POP JUMP JUMPDEST PUSH1 0x0 PUSH2 0xED3 DUP3 PUSH2 0xEFE JUMP JUMPDEST SWAP1 POP SWAP2 SWAP1 POP JUMP JUMPDEST PUSH1 0x0 DUP2 ISZERO ISZERO SWAP1 POP SWAP2 SWAP1 POP JUMP JUMPDEST PUSH1 0x0 DUP2 SWAP1 POP SWAP2 SWAP1 POP JUMP JUMPDEST PUSH1 0x0 PUSH2 0xFFFF DUP3 AND SWAP1 POP SWAP2 SWAP1 POP JUMP JUMPDEST PUSH1 0x0 PUSH20 0xFFFFFFFFFFFFFFFFFFFFFFFFFFFFFFFFFFFFFFFF DUP3 AND SWAP1 POP SWAP2 SWAP1 POP JUMP JUMPDEST PUSH1 0x0 DUP2 SWAP1 POP SWAP2 SWAP1 POP JUMP JUMPDEST PUSH1 0x0 PUSH4 0xFFFFFFFF DUP3 AND SWAP1 POP SWAP2 SWAP1 POP JUMP JUMPDEST PUSH1 0x0 PUSH8 0xFFFFFFFFFFFFFFFF DUP3 AND SWAP1 POP SWAP2 SWAP1 POP JUMP JUMPDEST DUP3 DUP2 DUP4 CALLDATACOPY PUSH1 0x0 DUP4 DUP4 ADD MSTORE POP POP POP JUMP JUMPDEST PUSH1 0x0 JUMPDEST DUP4 DUP2 LT ISZERO PUSH2 0xF79 JUMPI DUP1 DUP3 ADD MLOAD DUP2 DUP5 ADD MSTORE PUSH1 0x20 DUP2 ADD SWAP1 POP PUSH2 0xF5E JUMP JUMPDEST DUP4 DUP2 GT ISZERO PUSH2 0xF88 JUMPI PUSH1 0x0 DUP5 DUP5 ADD MSTORE JUMPDEST POP POP POP POP JUMP JUMPDEST PUSH2 0xF97 DUP3 PUSH2 0x10F9 JUMP JUMPDEST DUP2 ADD DUP2 DUP2 LT PUSH8 0xFFFFFFFFFFFFFFFF DUP3 GT OR ISZERO PUSH2 0xFB6 JUMPI PUSH2 0xFB5 PUSH2 0x10AC JUMP JUMPDEST JUMPDEST DUP1 PUSH1 0x40 MSTORE POP POP POP JUMP JUMPDEST PUSH1 0x0 PUSH2 0xFCA DUP3 PUSH2 0xF1E JUMP JUMPDEST SWAP2 POP PUSH2 0xFD5 DUP4 PUSH2 0xF1E JUMP JUMPDEST SWAP3 POP DUP3 PUSH2 0xFE5 JUMPI PUSH2 0xFE4 PUSH2 0x101F JUMP JUMPDEST JUMPDEST DUP3 DUP3 MOD SWAP1 POP SWAP3 SWAP2 POP POP JUMP JUMPDEST PUSH32 0x4E487B7100000000000000000000000000000000000000000000000000000000 PUSH1 0x0 MSTORE PUSH1 0x11 PUSH1 0x4 MSTORE PUSH1 0x24 PUSH1 0x0 REVERT JUMPDEST PUSH32 0x4E487B7100000000000000000000000000000000000000000000000000000000 PUSH1 0x0 MSTORE PUSH1 0x12 PUSH1 0x4 MSTORE PUSH1 0x24 PUSH1 0x0 REVERT JUMPDEST PUSH32 0x4E487B7100000000000000000000000000000000000000000000000000000000 PUSH1 0x0 MSTORE PUSH1 0x21 PUSH1 0x4 MSTORE PUSH1 0x24 PUSH1 0x0 REVERT JUMPDEST PUSH32 0x4E487B7100000000000000000000000000000000000000000000000000000000 PUSH1 0x0 MSTORE PUSH1 0x32 PUSH1 0x4 MSTORE PUSH1 0x24 PUSH1 0x0 REVERT JUMPDEST PUSH32 0x4E487B7100000000000000000000000000000000000000000000000000000000 PUSH1 0x0 MSTORE PUSH1 0x41 PUSH1 0x4 MSTORE PUSH1 0x24 PUSH1 0x0 REVERT JUMPDEST PUSH1 0x0 DUP1 REVERT JUMPDEST PUSH1 0x0 DUP1 REVERT JUMPDEST PUSH1 0x0 DUP1 REVERT JUMPDEST PUSH1 0x0 DUP1 REVERT JUMPDEST PUSH1 0x0 DUP1 REVERT JUMPDEST PUSH1 0x0 DUP1 REVERT JUMPDEST PUSH1 0x0 PUSH1 0x1F NOT PUSH1 0x1F DUP4 ADD AND SWAP1 POP SWAP2 SWAP1 POP JUMP JUMPDEST POP JUMP JUMPDEST PUSH2 0x1116 DUP2 PUSH2 0xF1E JUMP JUMPDEST DUP2 EQ PUSH2 0x1121 JUMPI PUSH1 0x0 DUP1 REVERT JUMPDEST POP JUMP INVALID LOG2 PUSH5 0x6970667358 0x22 SLT KECCAK256 MSTORE 0xCD SWAP7 JUMP 0xE6 0xC EXTCODESIZE PUSH27 0x871067620FDB6719FB39AFE4202CAAE8764A03FFAB0BF2A764736F PUSH13 0x63430008070033000000000000 "},"gasEstimates":{"creation":{"codeDepositCost":"888400","executionCost":"infinite","totalCost":"infinite"},"external":{"checkUpkeep(bytes)":"infinite","enterRaffle()":"infinite","getNumWords()":"343","getPlayer(uint256)":"5033","getRecentWinner()":"2589","getRequestConfirmations()":"365","performUpkeep(bytes)":"infinite","rawFulfillRandomWords(uint256,uint256[])":"infinite"},"internal":{"fulfillRandomWords(uint256,uint256[] memory)":"infinite"}},"methodIdentifiers":{"checkUpkeep(bytes)":"6e04ff0d","enterRaffle()":"2cfcc539","getNumWords()":"53a2c19a","getPlayer(uint256)":"e55ae4e8","getRecentWinner()":"473f1ddc","getRequestConfirmations()":"5f1b0fd8","performUpkeep(bytes)":"4585e33b","rawFulfillRandomWords(uint256,uint256[])":"1fe543e3"}},"storageLayout":{"storage":[{"astId":220,"contract":"contracts/Raffle.sol:Raffle","label":"s_lastTimeStamp","offset":0,"slot":"0","type":"t_uint256"},{"astId":222,"contract":"contracts/Raffle.sol:Raffle","label":"s_recentWinner","offset":0,"slot":"1","type":"t_address"},{"astId":225,"contract":"contracts/Raffle.sol:Raffle","label":"s_players","offset":0,"slot":"2","type":"t_array(t_address_payable)dyn_storage"},{"astId":228,"contract":"contracts/Raffle.sol:Raffle","label":"s_raffleState","offset":0,"slot":"3","type":"t_enum(RaffleState)199"}],"types":{"t_address":{"encoding":"inplace","label":"address","numberOfBytes":"20"},"t_address_payable":{"encoding":"inplace","label":"address payable","numberOfBytes":"20"},"t_array(t_address_payable)dyn_storage":{"base":"t_address_payable","encoding":"dynamic_array","label":"address payable[]","numberOfBytes":"32"},"t_enum(RaffleState)199":{"encoding":"inplace","label":"enum Raffle.RaffleState","numberOfBytes":"1"},"t_uint256":{"encoding":"inplace","label":"uint256","numberOfBytes":"32"}}},"userdoc":{"kind":"user","methods":{},"version":1}}}}