{
  "_format": "hh-sol-artifact-1",
  "contractName": "Raffle",
  "sourceName": "contracts/Raffle.sol",
  "abi": [
    {
      "inputs": [
        {
          "internalType": "address",
          "name": "vrfCoordinatorV2",
          "type": "address"
        },
        {
          "internalType": "uint64",
          "name": "subscriptionId",
          "type": "uint64"
        },
        {
          "internalType": "bytes32",
          "name": "gasLane",
          "type": "bytes32"
        },
        {
          "internalType": "uint256",
          "name": "interval",
          "type": "uint256"
        },
        {
          "internalType": "uint256",
          "name": "entranceFee",
          "type": "uint256"
        },
        {
          "internalType": "uint32",
          "name": "callbackGasLimit",
          "type": "uint32"
        }
      ],
      "stateMutability": "nonpayable",
      "type": "constructor"
    },
    {
      "inputs": [
        {
          "internalType": "address",
          "name": "have",
          "type": "address"
        },
        {
          "internalType": "address",
          "name": "want",
          "type": "address"
        }
      ],
      "name": "OnlyCoordinatorCanFulfill",
      "type": "error"
    },
    {
      "inputs": [],
      "name": "Raffle__SendMoreToEnterRaffle",
      "type": "error"
    },
    {
      "inputs": [],
      "name": "Raffle__TransferFailed",
      "type": "error"
    },
    {
      "anonymous": false,
      "inputs": [
        {
          "indexed": true,
          "internalType": "address",
          "name": "player",
          "type": "address"
        }
      ],
      "name": "RaffleEnter",
      "type": "event"
    },
    {
      "anonymous": false,
      "inputs": [
        {
          "indexed": true,
          "internalType": "uint256",
          "name": "requestId",
          "type": "uint256"
        }
      ],
      "name": "RequestedRaffleWinner",
      "type": "event"
    },
    {
      "anonymous": false,
      "inputs": [
        {
          "indexed": true,
          "internalType": "address",
          "name": "player",
          "type": "address"
        }
      ],
      "name": "WinnerPicked",
      "type": "event"
    },
    {
      "inputs": [],
      "name": "enterRaffle",
      "outputs": [],
      "stateMutability": "payable",
      "type": "function"
    },
    {
      "inputs": [],
      "name": "getNumWords",
      "outputs": [
        {
          "internalType": "uint256",
          "name": "",
          "type": "uint256"
        }
      ],
      "stateMutability": "pure",
      "type": "function"
    },
    {
      "inputs": [
        {
          "internalType": "uint256",
          "name": "index",
          "type": "uint256"
        }
      ],
      "name": "getPlayer",
      "outputs": [
        {
          "internalType": "address",
          "name": "",
          "type": "address"
        }
      ],
      "stateMutability": "view",
      "type": "function"
    },
    {
      "inputs": [],
      "name": "getRecentWinner",
      "outputs": [
        {
          "internalType": "address",
          "name": "",
          "type": "address"
        }
      ],
      "stateMutability": "view",
      "type": "function"
    },
    {
      "inputs": [],
      "name": "getRequestConfirmations",
      "outputs": [
        {
          "internalType": "uint256",
          "name": "",
          "type": "uint256"
        }
      ],
      "stateMutability": "pure",
      "type": "function"
    },
    {
      "inputs": [
        {
          "internalType": "uint256",
          "name": "requestId",
          "type": "uint256"
        },
        {
          "internalType": "uint256[]",
          "name": "randomWords",
          "type": "uint256[]"
        }
      ],
      "name": "rawFulfillRandomWords",
      "outputs": [],
      "stateMutability": "nonpayable",
      "type": "function"
    }
  ],
  "bytecode": "0x6101406040523480156200001257600080fd5b5060405162000c5d38038062000c5d833981810160405281019062000038919062000256565b858073ffffffffffffffffffffffffffffffffffffffff1660808173ffffffffffffffffffffffffffffffffffffffff1681525050508573ffffffffffffffffffffffffffffffffffffffff1660a08173ffffffffffffffffffffffffffffffffffffffff16815250508360e081815250508467ffffffffffffffff1660c08167ffffffffffffffff16815250508161012081815250508063ffffffff166101008163ffffffff1681525050505050505050620002f2565b600080fd5b600073ffffffffffffffffffffffffffffffffffffffff82169050919050565b60006200012282620000f5565b9050919050565b620001348162000115565b81146200014057600080fd5b50565b600081519050620001548162000129565b92915050565b600067ffffffffffffffff82169050919050565b62000179816200015a565b81146200018557600080fd5b50565b60008151905062000199816200016e565b92915050565b6000819050919050565b620001b4816200019f565b8114620001c057600080fd5b50565b600081519050620001d481620001a9565b92915050565b6000819050919050565b620001ef81620001da565b8114620001fb57600080fd5b50565b6000815190506200020f81620001e4565b92915050565b600063ffffffff82169050919050565b620002308162000215565b81146200023c57600080fd5b50565b600081519050620002508162000225565b92915050565b60008060008060008060c08789031215620002765762000275620000f0565b5b60006200028689828a0162000143565b96505060206200029989828a0162000188565b9550506040620002ac89828a01620001c3565b9450506060620002bf89828a01620001fe565b9350506080620002d289828a01620001fe565b92505060a0620002e589828a016200023f565b9150509295509295509295565b60805160a05160c05160e05161010051610120516109206200033d600039600061020d0152600050506000505060005050600050506000818161014d01526101a101526109206000f3fe6080604052600436106100555760003560e01c80631fe543e31461005a5780632cfcc53914610083578063473f1ddc1461008d57806353a2c19a146100b85780635f1b0fd8146100e3578063e55ae4e81461010e575b600080fd5b34801561006657600080fd5b50610081600480360381019061007c91906106dd565b61014b565b005b61008b61020b565b005b34801561009957600080fd5b506100a261030d565b6040516100af919061077a565b60405180910390f35b3480156100c457600080fd5b506100cd610336565b6040516100da91906107a4565b60405180910390f35b3480156100ef57600080fd5b506100f8610345565b60405161010591906107a4565b60405180910390f35b34801561011a57600080fd5b50610135600480360381019061013091906107bf565b610352565b604051610142919061077a565b60405180910390f35b7f000000000000000000000000000000000000000000000000000000000000000073ffffffffffffffffffffffffffffffffffffffff163373ffffffffffffffffffffffffffffffffffffffff16146101fd57337f00000000000000000000000000000000000000000000000000000000000000006040517f1cf993f40000000000000000000000000000000000000000000000000000000081526004016101f49291906107ec565b60405180910390fd5b610207828261039a565b5050565b7f0000000000000000000000000000000000000000000000000000000000000000341015610265576040517f3038c00a00000000000000000000000000000000000000000000000000000000815260040160405180910390fd5b6001339080600181540180825580915050600190039060005260206000200160009091909190916101000a81548173ffffffffffffffffffffffffffffffffffffffff021916908373ffffffffffffffffffffffffffffffffffffffff1602179055503373ffffffffffffffffffffffffffffffffffffffff167f0805e1d667bddb8a95f0f09880cf94f403fb596ce79928d9f29b74203ba284d460405160405180910390a2565b60008060009054906101000a900473ffffffffffffffffffffffffffffffffffffffff16905090565b6000600163ffffffff16905090565b6000600361ffff16905090565b60006001828154811061036857610367610815565b5b9060005260206000200160009054906101000a900473ffffffffffffffffffffffffffffffffffffffff169050919050565b6000600180549050826000815181106103b6576103b5610815565b5b60200260200101516103c89190610873565b90506000600182815481106103e0576103df610815565b5b9060005260206000200160009054906101000a900473ffffffffffffffffffffffffffffffffffffffff169050806000806101000a81548173ffffffffffffffffffffffffffffffffffffffff021916908373ffffffffffffffffffffffffffffffffffffffff16021790555060008173ffffffffffffffffffffffffffffffffffffffff1647604051610473906108d5565b60006040518083038185875af1925050503d80600081146104b0576040519150601f19603f3d011682016040523d82523d6000602084013e6104b5565b606091505b50509050806104f0576040517fa1d04b3900000000000000000000000000000000000000000000000000000000815260040160405180910390fd5b8173ffffffffffffffffffffffffffffffffffffffff167f5b690ec4a06fe979403046eaeea5b3ce38524683c3001f662c8b5a829632f7df60405160405180910390a25050505050565b6000604051905090565b600080fd5b600080fd5b6000819050919050565b6105618161054e565b811461056c57600080fd5b50565b60008135905061057e81610558565b92915050565b600080fd5b6000601f19601f8301169050919050565b7f4e487b7100000000000000000000000000000000000000000000000000000000600052604160045260246000fd5b6105d282610589565b810181811067ffffffffffffffff821117156105f1576105f061059a565b5b80604052505050565b600061060461053a565b905061061082826105c9565b919050565b600067ffffffffffffffff8211156106305761062f61059a565b5b602082029050602081019050919050565b600080fd5b600061065961065484610615565b6105fa565b9050808382526020820190506020840283018581111561067c5761067b610641565b5b835b818110156106a55780610691888261056f565b84526020840193505060208101905061067e565b5050509392505050565b600082601f8301126106c4576106c3610584565b5b81356106d4848260208601610646565b91505092915050565b600080604083850312156106f4576106f3610544565b5b60006107028582860161056f565b925050602083013567ffffffffffffffff81111561072357610722610549565b5b61072f858286016106af565b9150509250929050565b600073ffffffffffffffffffffffffffffffffffffffff82169050919050565b600061076482610739565b9050919050565b61077481610759565b82525050565b600060208201905061078f600083018461076b565b92915050565b61079e8161054e565b82525050565b60006020820190506107b96000830184610795565b92915050565b6000602082840312156107d5576107d4610544565b5b60006107e38482850161056f565b91505092915050565b6000604082019050610801600083018561076b565b61080e602083018461076b565b9392505050565b7f4e487b7100000000000000000000000000000000000000000000000000000000600052603260045260246000fd5b7f4e487b7100000000000000000000000000000000000000000000000000000000600052601260045260246000fd5b600061087e8261054e565b91506108898361054e565b92508261089957610898610844565b5b828206905092915050565b600081905092915050565b50565b60006108bf6000836108a4565b91506108ca826108af565b600082019050919050565b60006108e0826108b2565b915081905091905056fea264697066735822122018f119e90f37d685a3d83ef48f438723aa4c19b915f55caf4025c683bf2cbbfd64736f6c63430008130033",
  "linkReferences": {},
  "deployedLinkReferences": {}
}