{
  "_format": "hh-sol-artifact-1",
  "contractName": "Raffle",
  "sourceName": "contracts/Raffle.sol",
  "abi": [
    {
      "inputs": [
        {
          "internalType": "address",
          "name": "vrfCoordinatorV2",
          "type": "address"
        },
        {
          "internalType": "uint64",
          "name": "subscriptionId",
          "type": "uint64"
        },
        {
          "internalType": "bytes32",
          "name": "gasLane",
          "type": "bytes32"
        },
        {
          "internalType": "uint256",
          "name": "interval",
          "type": "uint256"
        },
        {
          "internalType": "uint256",
          "name": "entranceFee",
          "type": "uint256"
        },
        {
          "internalType": "uint32",
          "name": "callbackGasLimit",
          "type": "uint32"
        }
      ],
      "stateMutability": "nonpayable",
      "type": "constructor"
    },
    {
      "inputs": [
        {
          "internalType": "address",
          "name": "have",
          "type": "address"
        },
        {
          "internalType": "address",
          "name": "want",
          "type": "address"
        }
      ],
      "name": "OnlyCoordinatorCanFulfill",
      "type": "error"
    },
    {
      "inputs": [],
      "name": "Raffle__RaffleNotOpen",
      "type": "error"
    },
    {
      "inputs": [],
      "name": "Raffle__SendMoreToEnterRaffle",
      "type": "error"
    },
    {
      "inputs": [],
      "name": "Raffle__TransferFailed",
      "type": "error"
    },
    {
      "inputs": [
        {
          "internalType": "uint256",
          "name": "currentBalance",
          "type": "uint256"
        },
        {
          "internalType": "uint256",
          "name": "numPlayers",
          "type": "uint256"
        },
        {
          "internalType": "uint256",
          "name": "raffleState",
          "type": "uint256"
        }
      ],
      "name": "Raffle__UpkeepNotNeeded",
      "type": "error"
    },
    {
      "anonymous": false,
      "inputs": [
        {
          "indexed": true,
          "internalType": "address",
          "name": "player",
          "type": "address"
        }
      ],
      "name": "RaffleEnter",
      "type": "event"
    },
    {
      "anonymous": false,
      "inputs": [
        {
          "indexed": true,
          "internalType": "uint256",
          "name": "requestId",
          "type": "uint256"
        }
      ],
      "name": "RequestRaffleWinner",
      "type": "event"
    },
    {
      "anonymous": false,
      "inputs": [
        {
          "indexed": true,
          "internalType": "address",
          "name": "player",
          "type": "address"
        }
      ],
      "name": "WinnerPicked",
      "type": "event"
    },
    {
      "inputs": [
        {
          "internalType": "bytes",
          "name": "",
          "type": "bytes"
        }
      ],
      "name": "checkUpkeep",
      "outputs": [
        {
          "internalType": "bool",
          "name": "upkeepNeeded",
          "type": "bool"
        },
        {
          "internalType": "bytes",
          "name": "",
          "type": "bytes"
        }
      ],
      "stateMutability": "view",
      "type": "function"
    },
    {
      "inputs": [],
      "name": "enterRaffle",
      "outputs": [],
      "stateMutability": "payable",
      "type": "function"
    },
    {
      "inputs": [],
      "name": "getEntranceFee",
      "outputs": [
        {
          "internalType": "uint256",
          "name": "",
          "type": "uint256"
        }
      ],
      "stateMutability": "view",
      "type": "function"
    },
    {
      "inputs": [],
      "name": "getInterval",
      "outputs": [
        {
          "internalType": "uint256",
          "name": "",
          "type": "uint256"
        }
      ],
      "stateMutability": "view",
      "type": "function"
    },
    {
      "inputs": [],
      "name": "getNumWords",
      "outputs": [
        {
          "internalType": "uint256",
          "name": "",
          "type": "uint256"
        }
      ],
      "stateMutability": "pure",
      "type": "function"
    },
    {
      "inputs": [
        {
          "internalType": "uint256",
          "name": "index",
          "type": "uint256"
        }
      ],
      "name": "getPlayer",
      "outputs": [
        {
          "internalType": "address",
          "name": "",
          "type": "address"
        }
      ],
      "stateMutability": "view",
      "type": "function"
    },
    {
      "inputs": [],
      "name": "getRaffleState",
      "outputs": [
        {
          "internalType": "enum Raffle.RaffleState",
          "name": "",
          "type": "uint8"
        }
      ],
      "stateMutability": "view",
      "type": "function"
    },
    {
      "inputs": [],
      "name": "getRecentWinner",
      "outputs": [
        {
          "internalType": "address",
          "name": "",
          "type": "address"
        }
      ],
      "stateMutability": "view",
      "type": "function"
    },
    {
      "inputs": [],
      "name": "getRequestConfirmations",
      "outputs": [
        {
          "internalType": "uint256",
          "name": "",
          "type": "uint256"
        }
      ],
      "stateMutability": "pure",
      "type": "function"
    },
    {
      "inputs": [
        {
          "internalType": "bytes",
          "name": "",
          "type": "bytes"
        }
      ],
      "name": "performUpkeep",
      "outputs": [],
      "stateMutability": "nonpayable",
      "type": "function"
    },
    {
      "inputs": [
        {
          "internalType": "uint256",
          "name": "requestId",
          "type": "uint256"
        },
        {
          "internalType": "uint256[]",
          "name": "randomWords",
          "type": "uint256[]"
        }
      ],
      "name": "rawFulfillRandomWords",
      "outputs": [],
      "stateMutability": "nonpayable",
      "type": "function"
    }
  ],
  "bytecode": "0x6101606040523480156200001257600080fd5b50604051620016a6380380620016a68339818101604052810190620000389190620001a6565b858073ffffffffffffffffffffffffffffffffffffffff1660808173ffffffffffffffffffffffffffffffffffffffff1660601b81525050508573ffffffffffffffffffffffffffffffffffffffff1660a08173ffffffffffffffffffffffffffffffffffffffff1660601b815250508360e081815250508261012081815250508467ffffffffffffffff1660c08167ffffffffffffffff1660c01b815250508161014081815250506000600360006101000a81548160ff021916908360018111156200010a5762000109620002ae565b5b02179055508063ffffffff166101008163ffffffff1660e01b8152505050505050505062000364565b6000815190506200014481620002e2565b92915050565b6000815190506200015b81620002fc565b92915050565b600081519050620001728162000316565b92915050565b600081519050620001898162000330565b92915050565b600081519050620001a0816200034a565b92915050565b60008060008060008060c08789031215620001c657620001c5620002dd565b5b6000620001d689828a0162000133565b9650506020620001e989828a016200018f565b9550506040620001fc89828a016200014a565b94505060606200020f89828a0162000161565b93505060806200022289828a0162000161565b92505060a06200023589828a0162000178565b9150509295509295509295565b60006200024f8262000260565b9050919050565b6000819050919050565b600073ffffffffffffffffffffffffffffffffffffffff82169050919050565b6000819050919050565b600063ffffffff82169050919050565b600067ffffffffffffffff82169050919050565b7f4e487b7100000000000000000000000000000000000000000000000000000000600052602160045260246000fd5b600080fd5b620002ed8162000242565b8114620002f957600080fd5b50565b620003078162000256565b81146200031357600080fd5b50565b620003218162000280565b81146200032d57600080fd5b50565b6200033b816200028a565b81146200034757600080fd5b50565b62000355816200029a565b81146200036157600080fd5b50565b60805160601c60a05160601c60c05160c01c60e0516101005160e01c61012051610140516112c6620003e06000396000818161027e015261037b015260008181610771015261081a01526000610620015260006105dc015260006105fd015260006105a00152600081816102bb015261030f01526112c66000f3fe60806040526004361061009c5760003560e01c8063473f1ddc11610064578063473f1ddc1461015357806353a2c19a1461017e5780635f1b0fd8146101a95780636e04ff0d146101d457806391ad27b414610212578063e55ae4e81461023d5761009c565b806309bc33a7146100a1578063115cbaf5146100cc5780631fe543e3146100f75780632cfcc539146101205780634585e33b1461012a575b600080fd5b3480156100ad57600080fd5b506100b661027a565b6040516100c39190610ecc565b60405180910390f35b3480156100d857600080fd5b506100e16102a2565b6040516100ee9190610eb1565b60405180910390f35b34801561010357600080fd5b5061011e60048036038101906101199190610ca5565b6102b9565b005b610128610379565b005b34801561013657600080fd5b50610151600480360381019061014c9190610bb5565b6104e8565b005b34801561015f57600080fd5b506101686106e8565b6040516101759190610dea565b60405180910390f35b34801561018a57600080fd5b50610193610712565b6040516101a09190610ecc565b60405180910390f35b3480156101b557600080fd5b506101be610721565b6040516101cb9190610ecc565b60405180910390f35b3480156101e057600080fd5b506101fb60048036038101906101f69190610c02565b61072e565b604051610209929190610e2e565b60405180910390f35b34801561021e57600080fd5b50610227610816565b6040516102349190610ecc565b60405180910390f35b34801561024957600080fd5b50610264600480360381019061025f9190610c4b565b61083e565b6040516102719190610dea565b60405180910390f35b60007f0000000000000000000000000000000000000000000000000000000000000000905090565b6000600360009054906101000a900460ff16905090565b7f000000000000000000000000000000000000000000000000000000000000000073ffffffffffffffffffffffffffffffffffffffff163373ffffffffffffffffffffffffffffffffffffffff161461036b57337f00000000000000000000000000000000000000000000000000000000000000006040517f1cf993f4000000000000000000000000000000000000000000000000000000008152600401610362929190610e05565b60405180910390fd5b6103758282610886565b5050565b7f00000000000000000000000000000000000000000000000000000000000000003410156103d3576040517f3038c00a00000000000000000000000000000000000000000000000000000000815260040160405180910390fd5b600060018111156103e7576103e66111a6565b5b600360009054906101000a900460ff166001811115610409576104086111a6565b5b14610440576040517fd24a271400000000000000000000000000000000000000000000000000000000815260040160405180910390fd5b6002339080600181540180825580915050600190039060005260206000200160009091909190916101000a81548173ffffffffffffffffffffffffffffffffffffffff021916908373ffffffffffffffffffffffffffffffffffffffff1602179055503373ffffffffffffffffffffffffffffffffffffffff167f0805e1d667bddb8a95f0f09880cf94f403fb596ce79928d9f29b74203ba284d460405160405180910390a2565b60006105026040518060200160405280600081525061072e565b509050806105715747600280549050600360009054906101000a900460ff166001811115610533576105326111a6565b5b6040517f584327aa00000000000000000000000000000000000000000000000000000000815260040161056893929190610ee7565b60405180910390fd5b6001600360006101000a81548160ff02191690836001811115610597576105966111a6565b5b021790555060007f000000000000000000000000000000000000000000000000000000000000000073ffffffffffffffffffffffffffffffffffffffff16635d3b1d307f00000000000000000000000000000000000000000000000000000000000000007f000000000000000000000000000000000000000000000000000000000000000060037f000000000000000000000000000000000000000000000000000000000000000060016040518663ffffffff1660e01b8152600401610661959493929190610e5e565b602060405180830381600087803b15801561067b57600080fd5b505af115801561068f573d6000803e3d6000fd5b505050506040513d601f19601f820116820180604052508101906106b39190610c78565b9050807fde6349b018d6c03d837b67d9a198a6ba4842546f2295fe963fae141e5dbaef8160405160405180910390a250505050565b6000600160009054906101000a900473ffffffffffffffffffffffffffffffffffffffff16905090565b6000600163ffffffff16905090565b6000600361ffff16905090565b600060606000600360009054906101000a900460ff166001811115610756576107556111a6565b5b6000600181111561076a576107696111a6565b5b14905060007f00000000000000000000000000000000000000000000000000000000000000006000544261079e9190610fc7565b119050600080600280549050119050600080471190508280156107be5750835b80156107c75750805b80156107d05750815b9550856040518060400160405280600381526020017f30783000000000000000000000000000000000000000000000000000000000008152509550955050505050915091565b60007f0000000000000000000000000000000000000000000000000000000000000000905090565b600060028281548110610854576108536111d5565b5b9060005260206000200160009054906101000a900473ffffffffffffffffffffffffffffffffffffffff169050919050565b6000600280549050826000815181106108a2576108a16111d5565b5b60200260200101516108b49190611117565b90506000600282815481106108cc576108cb6111d5565b5b9060005260206000200160009054906101000a900473ffffffffffffffffffffffffffffffffffffffff16905080600160006101000a81548173ffffffffffffffffffffffffffffffffffffffff021916908373ffffffffffffffffffffffffffffffffffffffff16021790555060008173ffffffffffffffffffffffffffffffffffffffff164760405161096090610dd5565b60006040518083038185875af1925050503d806000811461099d576040519150601f19603f3d011682016040523d82523d6000602084013e6109a2565b606091505b50509050806109dd576040517fa1d04b3900000000000000000000000000000000000000000000000000000000815260040160405180910390fd5b8173ffffffffffffffffffffffffffffffffffffffff167f5b690ec4a06fe979403046eaeea5b3ce38524683c3001f662c8b5a829632f7df60405160405180910390a25050505050565b6000610a3a610a3584610f43565b610f1e565b90508083825260208201905082856020860282011115610a5d57610a5c61123d565b5b60005b85811015610a8d5781610a738882610b8b565b845260208401935060208301925050600181019050610a60565b5050509392505050565b6000610aaa610aa584610f6f565b610f1e565b905082815260208101848484011115610ac657610ac5611242565b5b610ad18482856110a4565b509392505050565b600082601f830112610aee57610aed611238565b5b8135610afe848260208601610a27565b91505092915050565b60008083601f840112610b1d57610b1c611238565b5b8235905067ffffffffffffffff811115610b3a57610b39611233565b5b602083019150836001820283011115610b5657610b5561123d565b5b9250929050565b600082601f830112610b7257610b71611238565b5b8135610b82848260208601610a97565b91505092915050565b600081359050610b9a81611279565b92915050565b600081519050610baf81611279565b92915050565b60008060208385031215610bcc57610bcb61124c565b5b600083013567ffffffffffffffff811115610bea57610be9611247565b5b610bf685828601610b07565b92509250509250929050565b600060208284031215610c1857610c1761124c565b5b600082013567ffffffffffffffff811115610c3657610c35611247565b5b610c4284828501610b5d565b91505092915050565b600060208284031215610c6157610c6061124c565b5b6000610c6f84828501610b8b565b91505092915050565b600060208284031215610c8e57610c8d61124c565b5b6000610c9c84828501610ba0565b91505092915050565b60008060408385031215610cbc57610cbb61124c565b5b6000610cca85828601610b8b565b925050602083013567ffffffffffffffff811115610ceb57610cea611247565b5b610cf785828601610ad9565b9150509250929050565b610d0a81610ffb565b82525050565b610d198161100d565b82525050565b610d2881611019565b82525050565b6000610d3982610fa0565b610d438185610fab565b9350610d538185602086016110b3565b610d5c81611251565b840191505092915050565b610d7081611092565b82525050565b6000610d83600083610fbc565b9150610d8e82611262565b600082019050919050565b610da281611036565b82525050565b610db181611064565b82525050565b610dc08161106e565b82525050565b610dcf8161107e565b82525050565b6000610de082610d76565b9150819050919050565b6000602082019050610dff6000830184610d01565b92915050565b6000604082019050610e1a6000830185610d01565b610e276020830184610d01565b9392505050565b6000604082019050610e436000830185610d10565b8181036020830152610e558184610d2e565b90509392505050565b600060a082019050610e736000830188610d1f565b610e806020830187610dc6565b610e8d6040830186610d99565b610e9a6060830185610db7565b610ea76080830184610db7565b9695505050505050565b6000602082019050610ec66000830184610d67565b92915050565b6000602082019050610ee16000830184610da8565b92915050565b6000606082019050610efc6000830186610da8565b610f096020830185610da8565b610f166040830184610da8565b949350505050565b6000610f28610f39565b9050610f3482826110e6565b919050565b6000604051905090565b600067ffffffffffffffff821115610f5e57610f5d611204565b5b602082029050602081019050919050565b600067ffffffffffffffff821115610f8a57610f89611204565b5b610f9382611251565b9050602081019050919050565b600081519050919050565b600082825260208201905092915050565b600081905092915050565b6000610fd282611064565b9150610fdd83611064565b925082821015610ff057610fef611148565b5b828203905092915050565b600061100682611044565b9050919050565b60008115159050919050565b6000819050919050565b600081905061103182611265565b919050565b600061ffff82169050919050565b600073ffffffffffffffffffffffffffffffffffffffff82169050919050565b6000819050919050565b600063ffffffff82169050919050565b600067ffffffffffffffff82169050919050565b600061109d82611023565b9050919050565b82818337600083830152505050565b60005b838110156110d15780820151818401526020810190506110b6565b838111156110e0576000848401525b50505050565b6110ef82611251565b810181811067ffffffffffffffff8211171561110e5761110d611204565b5b80604052505050565b600061112282611064565b915061112d83611064565b92508261113d5761113c611177565b5b828206905092915050565b7f4e487b7100000000000000000000000000000000000000000000000000000000600052601160045260246000fd5b7f4e487b7100000000000000000000000000000000000000000000000000000000600052601260045260246000fd5b7f4e487b7100000000000000000000000000000000000000000000000000000000600052602160045260246000fd5b7f4e487b7100000000000000000000000000000000000000000000000000000000600052603260045260246000fd5b7f4e487b7100000000000000000000000000000000000000000000000000000000600052604160045260246000fd5b600080fd5b600080fd5b600080fd5b600080fd5b600080fd5b600080fd5b6000601f19601f8301169050919050565b50565b60028110611276576112756111a6565b5b50565b61128281611064565b811461128d57600080fd5b5056fea264697066735822122025ea386c569692478433769b08bc5463d42896262f33b7f288d62dcdcaa1f96e64736f6c63430008070033",
  "linkReferences": {},
  "deployedLinkReferences": {}
}